:020000040800F2
:10000000503A002071830008A90E0008AB0E0008CA
:10001000CF0E0008D10E0008D30E0008000000002B
:10002000000000000000000000000000D50E0008E5
:10003000D70E000800000000D90E0008DB0E0008F3
:10004000878300081B01000887830008774A00089F
:100050008783000887830008878300088783000858
:100060008783000887830008878300088783000848
:100070008783000887830008878300088783000838
:100080008783000887830008878300088783000828
:100090008783000887830008878300088783000818
:1000A00087830008B16300088783000887830008FE
:1000B0002D480008534800083B4800088783000883
:1000C00087830008878300088783000887830008E8
:1000D00087830008B94100088783000887830008E8
:1000E0008F4B00088783000887830008DFF80CD057
:1000F00008F08AFA0048004755010008503A0020ED
:10010000401EFDD27047F848016841F0E0010160EF
:10011000016841F0100101607047F4494FF48030EC
:100120000860F14C60684007002802DA05E008F03A
:10013000FAF860684007FCD5F9E74FF40051EC4845
:1001400008F04FF900F0CCFE60684007FCD408F0DE
:10015000EAF8F9E78EB000200A9000250390E54FF9
:10016000786920F001007861E348406AC000002807
:1001700000DA012507F086FA07F0D5FC00F086FFCB
:1001800007F0A9FCFFF7BFFF4FF47A61072008F0E2
:10019000B9F807F0A0FFD94E70604FF4E13007F0D6
:1001A0006EFB4FF0000886F8008005F026FFD4486B
:1001B0000078AB2804D100250321D2A008F08FF8E5
:1001C000D149D24805B355220A7080F80080D04842
:1001D00080F80080CF4880F8008040F20F3007F0B0
:1001E000BFFC00F0B3FF07F0FBFB00F04FFF08F08F
:1001F00095F8C94E3068DFF824A3DFF82493800413
:1002000077D44FF4003514E081F8008080F8008046
:10021000C44880F80080C44880F8008007F09AFB4A
:10022000D5E708F07BF83068800402D501200A90F9
:1002300003E028466D1E0528F3D80A9801280AD045
:100240000024E01DC2B20121084604F053FD641CE5
:10025000E4B2062CF5D34FF0206541F2883B1FE055
:1002600008F05CF8B868C0F3C34001280BD004283C
:1002700009D0052807D0B5FBFBF00BFB105010B9D7
:10028000DAF8000080473068800409D54FF4801008
:10029000FFF736FF3068800402D502200A9006E09E
:1002A00028466D1E052802D90A980128D8D1306841
:1002B000800467D50A98022864D14FF4401519E0EC
:1002C00008F02CF8B868C0F3C34001280BD004280C
:1002D00009D0052807D0B5FBFBF00BFB105010B977
:1002E000DAF8000080473068800403D401200A90C7
:1002F00004E047E028466D1E0528E1D830688004F8
:1003000040D50A9802283DD107F044F97C48553879
:1003100007F06AF907F01CF98448C0F80080002053
:1003200007F092F8FF2804D0002007F0EAF807F061
:100330000FF90024E01DC2B20121002004F0DAFC14
:10034000641CE4B2062CF5D3A9F800804FF496752E
:10035000B868C0F3C340012806D0042804D005289B
:1003600002D0DAF800008047B9F80000A842EFD3C5
:10037000012000F0BCFD6E48AB2180F85510002034
:1003800000F0B5FD07F0CAFF07F035FC012000F0D2
:10039000AEFD674991F82200029091F8290000F023
:1003A000F0000009069006980F2801D90F2006904A
:1003B00091F82A00401CC0B2102800D91020022851
:1003C00000D2022000EB4000C0B2059011F8200FCF
:1003D00004904E7807F0A2FF00F058FE4D494FF010
:1003E000010B087868B94A480078012804D002282F
:1003F00005D0032803D004E081F800B001E0052017
:100400000870087808B104F0CAFC3C48406801282C
:100410001AD1A9F8008000F09EFD4FF496750DE00A
:1004200007F07CFFB868C0F3C340012806D0042859
:1004300004D0052802D0DAF800008047B9F800009F
:10044000A842EDD300F022FEA9F8008000F000FEE3
:100450004FF4967501E007F061FFB9F80000A8427B
:10046000F9D307F05BFF00F011FE32480078C5B207
:1004700020488079C7B24FF02009002E7DD02E4948
:10048000002008702D4E0120307007F0C5FB019050
:100490002A4E307858B107F0BFFB0199401A28283E
:1004A00001D90020307044F62060FFF729FE07F0E4
:1004B00035FF23480078002878D007F02FFF4FF44D
:1004C00000510B4807F08DFF00F0E0FD44F620647A
:1004D00007F024FF2046FFF713FEF9E74FF0280846
:1004E000FC2400F0D3FD5DE00070004014040140E6
:1004F00014080020780500200010024000000020B1
:1005000055FC00082B2B2B00200500202505002082
:1005100008000020090000200808014030000020E9
:10052000200000201F0500201B05002038000020AF
:100530003C280020220000201B0000201C0000207E
:100540001D0000206006000E40F001047F2C00D149
:100550007E24FD2C00D1FC2407F0E0FE00266FEA8B
:10056000040A47F2305B0AF0FF0004F0A5FD58468C
:10057000FFF7C6FD44F6206000E095E0FFF7C0FD00
:100580005846FFF7BDFD44F62060FFF7B9FD761C25
:10059000F6B2122EE7D3B8F1000F03D0A8F101088C
:1005A00008F0FF08B8F1000F7ED0CBE782E14FF0F2
:1005B0002808C02400F06AFD2CE06408012C02D059
:1005C000402C02D002E0812400E0C02407F0A6FE07
:1005D000002647F2305B44F6206A204604F06CFDAA
:1005E0005046FFF78DFD5846FFF78AFD5046FFF74E
:1005F00087FD5846FFF784FD5846FFF781FD761CBE
:10060000F6B2122EE9D3B8F1000F03D0A8F1010819
:1006100008F0FF08B8F1000FC6D0CEE7052600F0BD
:1006200035FDF648008807FB00F1F54807F0D9FED4
:1006300054E000240021FF23DFF8C4B313E00020BE
:1006400004EBC10A0AF101080AE00AFB05FC0BEB06
:1006500000020CF8023008FB05FC0CF80230401CCC
:10066000A842F2D3491CB1EBD70FE8D307F056FEEE
:100670004FF0000846F2A81A43F6982B04F0EBFC62
:100680005846FFF73DFD47F23050FFF739FD04F0C3
:10069000E2FC5846FFF734FD5046FFF731FD4FF4BA
:1006A0007A50FFF72DFD00E058E05046FFF728FD97
:1006B00008F1010808F0FF08B8F1190FDED3CF48A0
:1006C000008807FB00F1CE4807F08BFE082C07D00E
:1006D000641C082CAED30EB1761EF6B2F6B3A8E7B2
:1006E0000024F6E700F0D2FC0526C448008807FB8A
:1006F00000F1C34807F075FE53E008240021FF23F2
:10070000DFF8FCB213E0002004EBC10AAAF10108F3
:100710000AE00AFB05FC0BEB00020CF8023008FBB8
:1007200005FC0CF80230401CA842F2D3491CB1EB86
:10073000D70FE8D307F0F2FD4FF0000842F2107B2C
:1007400043F6982A04F087FC5046FFF7D9FC584638
:10075000FFF7D6FC04F07FFC504600E05BE0FFF7BB
:10076000CFFC5846FFF7CCFC4FF47A50FFF7C8FC9B
:1007700046F2A810FFF7C4FC08F1010808F0FF08D2
:10078000B8F1190FDED39D48008807FB00F19C48A3
:1007900007F027FE3CB1641E002CAFD10EB1761ECF
:1007A000F6B2C6B3A9E70824F6E74FF060080324C1
:1007B00000F06CFC2BE00026DFF840A2DFF840B22E
:1007C00018E0BAF80010224606FB01B007F002FE5E
:1007D000600040EAD410C4B207F0A0FD04F03BFC76
:1007E00043F69820FFF78CFC44F62060FFF788FC66
:1007F000761CF6B24E45E4D3600040EAD410C4B291
:10080000B8F1000F03D0A8F1010808F0FF08B8F113
:10081000000F38D0CFE736E04FF06008C02400F07A
:1008200035FC2DE00026DFF8D4A1DFF8D4B119E0C3
:10083000BAF80010224606FB01B007F0CBFD6008B5
:1008400004F0010140EAC11407F068FD04F003FC64
:1008500043F69820FFF754FC44F62060FFF750FC65
:10086000761CF6B24E45E3D3600804F0010140EA7D
:10087000C114B8F1000F03D0A8F1010808F0FF0877
:10088000B8F1000FCED107F081FD072190FBF1F206
:1008900001FB1200C0B20728F5D2DFE800F00A0918
:1008A000080706050400B7E77FE71BE7B6E67EE624
:1008B00014E6E8E70A9808B901200A9000F0B9FDAB
:1008C00007F02CFD0698844202D804F0C4FB01E036
:1008D00000F0DCFB0F2C02D2641CE4B200E0002428
:1008E0000598302808D205990898884204D300203A
:1008F0000890FF2004F0E0FB0898401CC0B208906C
:1009000003F03DF93F48007BC00708D03D4801692E
:1009100000297BD1816821F000518160D0E7DFF8A8
:10092000E8A09AF80200002871D04FF0000B85E093
:10093000324E3348318807F054FDDFF8C4803188E7
:1009400008EB010007F04DFD318808EB410007F08E
:1009500048FD318801EB4100404407F042FD3188F9
:1009600008EB810007F03DFD318801EB8100404438
:1009700007F037FD318801EB810000EBC10008EB87
:10098000400007F02EFD318801EBC10000EB400074
:10099000404407F026FD3188C1EBC10008EB800020
:1009A00007F01FFD318801EB4100C0EB41104044CE
:1009B00007F017FD3188C1EB011008EB400007F08C
:1009C00010FD3188C1EB4110404407F00AFD03F0EF
:1009D000B6FA02E001208AF80100069909988842D7
:1009E00002D804F038FB01E000F050FB09980F2812
:1009F0000ED20998401CC0B209900BE022000020E2
:100A000014080020780500200000002035E239E0BD
:100A1000002009900798401CC0B207900598302824
:100A200008D205990798884204D300200790FF2038
:100A300004F042FB9AF80100012807D08AF802B0BE
:100A400007F06CFC04980028C4D171E78AF801B063
:100A50000298002816D1039890B100200390042634
:100A600007F094FC072190FBF1F201FB1200C0B2E9
:100A700007284DD2DFE800F04C074D92FEFDFC0048
:100A800001200390F4E10EB1761EF6B24FF0280A71
:100A90004FF0FC0800F0FAFA37E04FEA4860000E29
:100AA00040F00108B8F17F0F01D14FF07E08B8F196
:100AB000FD0F01D14FF0FC0807F030FC4FF0000BA8
:100AC0006FEA08000D900D98C0B204F0F5FA47F2F5
:100AD0003050FFF715FB44F62060FFF711FB47F29B
:100AE0003050FFF70DFB44F62060FFF709FB0BF1D8
:100AF000010B0BF0FF0BBBF1120FE4D3BAF1000FA7
:100B000003D0AAF1010A0AF0FF0ABAF1000FC4D11A
:100B1000A9E10EB1761EF6B24FF0280A4FF0C008D8
:100B200000F0B4FA36E04FEA5808B8F1010F03D0EC
:100B3000B8F1400F03D004E04FF0810801E04FF01E
:100B4000C00807F0EBFB4FF0000B404604F0B4FA8E
:100B500044F62060FFF7D4FA47F23050FFF7D0FA9E
:100B600044F62060FFF7CCFA47F23050FFF7C8FA9E
:100B700047F23050FFF7C4FA0BF1010B0BF0FF0BFB
:100B8000BBF1120FE1D3BAF1000F03D0AAF1010AB1
:100B90000AF0FF0ABAF1000FC5D164E10EB1761E6A
:100BA000F6B24FF0050A00F071FABA48008807FB68
:100BB00000F1B94807F015FC62E04FF00008002191
:100BC000FF23DFF8D4E217E0002008EBC10BCDF8DB
:100BD00030B00BF1010B0CE0DDF830C00EEB000281
:100BE0000CFB05FC0CF802300BFB05FC0CF802308A
:100BF000401CA842F0D3491CB1EBD70FE4D307F057
:100C00008DFB4FF0000B04F026FA43F69820FFF717
:100C100077FA47F23050FFF773FA04F01CFA43F604
:100C20009820FFF76DFA46F2A810FFF769FA4FF423
:100C30007A50FFF765FA46F2A810FFF761FA0BF158
:100C4000010B0BF0FF0BBBF1190FDCD391480088AF
:100C500007FB00F1904807F0C4FBB8F1080F13D070
:100C600008F10108B8F1080FA9D3BAF1000F02E0AA
:100C7000BEE081E00BE003D0AAF1010A0AF0FF0A0E
:100C8000BAF1000F99D1EEE04FF00008EAE70EB19B
:100C9000761EF6B200F0FAF94FF0050A7D4800889A
:100CA00007FB00F17C4807F09CFB5EE04FF0080872
:100CB0000021FF23DFF8E0E117E0002008EBC10B83
:100CC000CDF82CB0ABF1010B0CE0DDF82CC00EEB35
:100CD00000020CFB05FC0CF802300BFB05FC0CF8C9
:100CE0000230401CA842F0D3491CB1EBD70FE4D32B
:100CF00007F014FB4FF0000B04F0ADF943F6982019
:100D0000FFF7FEF942F21070FFF7FAF904F0A3F9C9
:100D100043F69820FFF7F4F942F21070FFF7F0F96C
:100D20004FF47A50FFF7ECF946F2A810FFF7E8F914
:100D30000BF1010B0BF0FF0BBBF1190FDCD3554886
:100D4000008807FB00F1544807F04BFBB8F1000F97
:100D50000FD0A8F10108B8F1000FA9D1BAF1000F26
:100D600003D0AAF1010A0AF0FF0ABAF1000F9DD1DF
:100D700079E04FF00808EEE70EB1761EF6B24FF0BC
:100D8000600A4FF0030800F081F92DE00024DFF83D
:100D900008B11AE03F484246018804FB01B007F061
:100DA00019FB4FEA480040EAD81000F0FF0807F0AE
:100DB000B5FA04F050F943F69820FFF7A1F944F68C
:100DC0002060FFF79DF9641CE4B24C45E2D34FEA82
:100DD000480040EAD81000F0FF08BAF1000F03D035
:100DE000AAF1010A0AF0FF0ABAF1000FCED13AE0E7
:100DF0000EB1761EF6B24FF0600A4FF0C00800F058
:100E000045F92DE00024DFF890B01AE02148424671
:100E1000018804FB01B007F0DDFA4FEA580008F042
:100E2000010140EAC11807F079FA04F014F943F619
:100E30009820FFF765F944F62060FFF761F9641C1C
:100E4000E4B24C45E2D34FEA580008F0010140EA11
:100E5000C118BAF1000F03D0AAF1010A0AF0FF0A83
:100E6000BAF1000FCED1002E7FF4FAAD00F011F9E7
:100E70000A48806880007FF551AD094A1078401C0F
:100E8000C0B208490978B0FBF1F301FB1300107000
:100E9000FFF7FEBA22000020140800207805002089
:100EA0001B0000201A000020704730B4FF200B4CBC
:100EB0007723211F03E023800A885206FCD5020015
:100EC000A0F10100C0B2F6D130BC07F02CBAFEE7A9
:100ED000FEE7FEE7704770477047704704380140EF
:100EE000FE49102008607047401EFDD2704770B563
:100EF000FB4DFC4949684907002909DBFA4E40B11E
:100F0000002115F8010B7054491CC9B28029F8D38F
:100F100070BD06F03FFB284606F066FB0024311941
:100F2000C878020288781043020248781043000211
:100F3000315D0143284606F074FB2D1D241DE4B2EB
:100F4000802CECD3E948816841F000518160E84988
:100F50000020C87470BDF0B50021E548E54DE64EAF
:100F6000448B00204A1C02FB0463470805EB471C26
:100F7000074661F35F071CF80770A0F1080C03F83F
:100F80000C70401C80B20828EFD391B21029E8D32E
:100F9000D648007A012817D1002100204A1C02FB04
:100FA0000463470805EB471C074661F35F071CF81D
:100FB00007C0A0F1080703F807C0401C80B208284A
:100FC000EFD391B21029E8D3F0BD2DE9F04F002402
:100FD000DFF81C93DFF82483C74FB9F81A600023A9
:100FE000651C0EE000EB030C05FB067A08EB0C1CFD
:100FF00002EB030BDA441CF804C08AF860C05B1CE7
:101000009BB28B42EED3ACB2102CE8D3B74B1B7A19
:10101000012B1BD1002499F80C90002310E0C51877
:1010200008EB051502EB030A15F804C004EB0905EB
:101030006D1C05FB0675554405F808CC5B1C9BB27E
:101040008B42ECD3641CA4B2102CE6D3BDE8F08F25
:1010500010B5002201210B20FFF7B7FF0122114636
:101060001046FFF7B2FF022201210A20FFF7ADFF71
:10107000032201210020FFF7A8FF012104220846D6
:10108000FFF7A3FFBDE8104003F0E5BF002004F028
:1010900013B89648C1889648408B4143964807F05C
:1010A000A0B9934A0009118C48439049896811F40A
:1010B000F00F12D0C1F3C34103290ED007290CD081
:1010C00008290AD001290BD002291AD0062918D0E4
:1010D00004291AD0052918D01AE000EB800017E087
:1010E000117B402906D0302904D0202906D01029B0
:1010F00004D00DE000EB8000800009E01621484399
:1011000006E000EB8000400002E000EBC000400081
:10111000C0F30F1006F08CBC70472DE9F041054676
:101120000E461046002406F08FF9754F07E0305543
:10113000002006F02BFDB889C0B2641CE4B22A007E
:10114000A5F10105EDB2F2D1BDE8F0812DE9F04144
:10115000AFF23B07664CA7626349072228390A2091
:10116000FFF7DBFF6049614D283908782860682265
:10117000AA802022EA8000262E728B79AA6863F367
:101180005142CB7963F392420B7A63F3D642497AA8
:1011900061F3D852AA60297A02234FF0010C012989
:1011A00001D011B103E0237101E084F804C0C2F35F
:1011B000C341042901D0052902D163701021E980BF
:1011C000E988082906D263700821E9804D490E702C
:1011D00081F801C020630D216183A979217306F094
:1011E00033F9A074E67466753D4829300078E073E1
:1011F000EE604FF40051404807F0F3F8A670A06A83
:101200008047A86820F4F00020F40030A860A762AE
:10121000608B208400EB400101EBC0004FF6FF71B2
:1012200001EA400006F0C1FBE07BBDE8F04138E791
:1012300070B504462179E08E012901D9810771D466
:1012400020F00100E086002084F8350084F83400A6
:1012500094F848100D22206802EB810142182448BE
:101260000263214904202839FFF757FF1E4D283D0E
:101270006878A978000440EA0122E8780243294608
:101280000D20FFF74AFF2878A0776978E1771128C9
:1012900005D0122803D00D2801D00E2801D1490015
:1012A000E177A97884F8211084F83110AA796B7954
:1012B00042EA032262622B7AEE7943EA0623A362B2
:1012C000AB7AEE7A1B042D7B43EA06232B43E362C1
:1012D000E38E23F01003E386D20815E010080140E6
:1012E00000FC0008007000403C2800207805002029
:1012F000080000206689000814080020A68600085F
:101300000030014004310020626211B943F0040151
:10131000E186022806D1E08E40F00100E08694F8D4
:101320003200A07770BD2DE9F041FE4D686B286357
:1013300006F08AF8A8730026EE7075E000EB400115
:10134000F94A01EB001102EB8104696B01EB8000AB
:10135000801C286306F078F800022060002006F068
:1013600015FCF24F2068B989084300022060002074
:1013700006F00CFCB98920680843000220600020B8
:1013800006F004FCB9892068084320602863E84916
:101390000D202268FFF7C1FEE548017821718178B0
:1013A000427841EA0221A1600279C37842EA03222D
:1013B000E2608279437942EA03222261037AC779A3
:1013C00043EA07236361437AA361837A2377C07A70
:1013D000607784F84860E08E20F0020020F004007E
:1013E00020F008000A2384F8333040F0200040F059
:1013F000400040F0800040F48070E086D00820611A
:10140000C94A183A9388C0EBD3002061C808A0608D
:1014100066649088C749C0F3C70008702046FFF78C
:1014200007FFE878401CE870E878A97B884285D3FC
:101430008AE62DE9F047BC4E183EB06840F00070D7
:10144000B060B84C4FF0FF0984F81190DFF8E882E3
:10145000002088F806007072B16841F48031306174
:1014600021F00050B0604FF4005106F5277006F0EF
:10147000B8FF0127AE4D06F051FFE17C306807EB65
:10148000810142182263AA490420FFF746FE6878CA
:101490000102A87808430102E8780843606305F078
:1014A000D3FFA07309FA00F1C943A17500211522E9
:1014B0009D4B09E001EB410C0CEB011C03EB8C0C88
:1014C0008CF83220491CC9B28142F3D3606B401CB6
:1014D00005F0BAFF6073A17B606B00EB81000A30FE
:1014E000206305F0B1FF216B0844401C2063607B42
:1014F00000F00300012805D0607B00F00300022803
:101500000FD01FE005F049FFE0B106F007FFE07CD7
:10151000401CC0B2A17CB0FBF1F201FB1200E074F0
:10152000A9E7F760206B05F08FFF4FF6FF7101EA26
:101530000020E083002006F029FB7C488089E18BB5
:101540000843E083607B400736D5A17B606B00EBEE
:101550008102921C226376490420FFF7DEFD687841
:10156000A978000440EA0122E87802432263704926
:101570000720FFF7D2FD287888F80400687888F8FB
:101580000500A878C00888F80700E87888F80800FF
:10159000287988F80900032811D06879800088F834
:1015A0000A00072088F80B00A87988F80C00206B47
:1015B000C01D2063C8F80000BDE8F047B3E66879B5
:1015C00000EB4000800088F80A00EAE710B55748B1
:1015D000007BC4B2002006F0D9FA204610BD2DE9E8
:1015E000F05F81468B46DFF83CA1DAF82C00017CE5
:1015F000CDB2008986B2DAF8300005F025FFBAF8DE
:101600001A0009FB00F087B22C46DFF830812E4427
:1016100006E0FFF7DBFFE11908F80100641CA4B243
:10162000A642F6D840481838007A012814D19AF812
:101630000C004844C0B2BAF81A10484384B2584665
:1016400005F002FF06E0FFF7C1FF291908F80100C5
:101650006D1CADB2AE42F6D8BDE8F09F082815D299
:10166000DFE800F00406080A0C0E10128020704714
:101670004020704720207047102070470820704796
:1016800004207047022070470120704700207047F7
:101690002DE9F04F2348B0F81A80017B08FB01F1D7
:1016A0001FFA81F9C06A017D027B03891FFA83FA60
:1016B000007CC5B20023214C02EB010B15E001FBBD
:1016C00008F086B22846184A05EB0A0C183A177A31
:1016D00007E08219A354012F01D14A44A354401CAE
:1016E00080B28445F5D8491CC9B28B45E7D8ADE432
:1016F0002DE9FE4F0B49C86A027DD6B20296027BE5
:101700000192027CD7B202891FFA82F8B1F81A90CE
:101710000A7B09FB02F292B20092C06A086305F0EC
:1017200093FE0DE0080000209005002000300140ED
:10173000142800201805002028320020140800205A
:10174000DDE9012602EB060A13E006FB09F01FFAA9
:1017500080FB3C4607EB080507E0FFF737FFFF4932
:1017600004EB0B028854641CA4B2A542F5D8761C85
:10177000F6B2B245E9D8FA48007A012821D1F949F0
:10178000C86AC26A019808FB0020086305F05CFE85
:10179000029C14E0009804FB09001FFA80FB3D4600
:1017A00007EB080607E0FFF711FFEC4905EB0B021A
:1017B00088546D1CADB2AE42F5D8641CE4B2A245AB
:1017C000E8D8E84BD86A90F83410491CC9B280F8C0
:1017D0003410C28E42F00202C286846AA14209D14C
:1017E000002180F8341042F0020141F01001C1865E
:1017F000BDE8FE8F0199C26A08FB01F8197908FB60
:101800000121C162F4E72DE9F04782468946D54FB0
:10181000FA6A107DC5B2107BC6B210891FFA80F833
:1018200092F84400C4B2B4421ED192F83400401C75
:10183000C1B282F83410D08E40F00200D08600236E
:1018400053643D79D46A08FB06F808FB0544D4626A
:10185000946AA14206D1C10704D182F8343040F025
:101860001000D086BDE8F0870CB9FFF711FFBAF180
:10187000000F07D005EB0600A0EB0400A0F101006B
:10188000C0B202E004EB0500C0B2F96AA0EB0502A9
:10189000C96A08FB0211396308FB061811D0B9F1B7
:1018A000000F0AD0044605E041462046FFF797FEA8
:1018B000641EE4B2AC42F7D815E04146FFF78FFE54
:1018C00011E0B9F1000F0BD00446354405E0414664
:1018D0002046FFF784FE641CE4B2A542F7D802E07C
:1018E0004146FFF77CFEF86A416C491C4164B9E748
:1018F000F0B59C4CE26A117D0026984B648B05E0A4
:1019000001FB04F51F18EE55491CC9B25769D5688B
:101910003D448D42F4D8F0BD2DE9F34F85B08B46A0
:101920000025AA46002700200390DFF83882B8F887
:101930001A000290D8F82C0001891FFA81F9017D64
:10194000CEB2017B0191B0F844108CB2BBF1000F14
:101950001DD0017FC90702D183498979B9B10069D6
:1019600020B9012714B90020FFF7C2FFD8F82C00D6
:10197000006900EB09010298814208D1012003901F
:101980002CB9B8F81A00401E80B2FFF7B1FFD8F8A2
:101990002C008168B4EBC10F20D190F83410491CA1
:1019A000CAB280F8342000234364C18E41F00201A2
:1019B000C186019CC56A09FB04F998F8044009FB3B
:1019C0000454C462846AA24206D1CA0704D180F8D2
:1019D000343041F01001C18607B088E690F8360037
:1019E000C00702D10CB9FFF753FE0598F8B15D4965
:1019F000C86A027C4A44A2EBD402521E02F0FF08DD
:101A0000C06A4844A0EBD400401E086304F00700FD
:101A1000C0F10700FFF722FE0446BBF1000F24D0FF
:101A20004546C86A007C384400F0FF0A1DE04D4975
:101A3000C86A027C02EBD40202F0FF08C06A00EB25
:101A4000D400086304F00700FFF708FE0446BBF16A
:101A5000000F0AD0C86A007C00EB09010398081A3D
:101A6000C5B208F1010000F0FF0A3E480299027B6E
:101A7000514389B2009101983044049053E0029898
:101A8000704387B23748006B05F0DEFC0246334BEB
:101A900007EB0800195CA143224011431954BBF124
:101AA000000F0DD0504609E00AB1FF2100E00021EF
:101AB00007EB000C03F80C10401C80B2A842F3D3D3
:101AC0002748007A012826D12648016B019809FB96
:101AD000001005F0B9FC00997B18204F03EB0801BA
:101AE00017F801C02CEA040C00EA04024CEA020CCC
:101AF00007F801C0BBF1000F0DD0504609E00AB154
:101B0000FF2100E0002103EB000C07F80C10401C43
:101B100080B2A842F3D31348C16A026B89681144AA
:101B20000163761CF6B20498B042A8D80D48C06A8A
:101B3000416C491C41644FE72DE9F0470126DFF86D
:101B40002490D9F82C100A7DD7B2CA68D4B20B8978
:101B50001FFA83F8B1F844309DB207E01408002062
:101B6000780500200800002028320020AA421ED15B
:101B700091F83400401CC2B281F83420C88E40F085
:101B80000200C88600234B6408FB04F899F804405F
:101B9000CD6A08FB0454CC628C6AA24206D1C2070B
:101BA00004D181F8343040F01000C8865AE608B1FC
:101BB000002000E06008A84201D1FFF769FD26B1CE
:101BC0003819401B401E80B201E0E81980B2D9F8F4
:101BD0002C10C21BC96A08FB0211C9F8301008FB9F
:101BE0000411C0B2FFF7FBFC0EB10026E7E7D9F8FD
:101BF0002C00416C491C416434E6FE48C06A416CCB
:101C0000002902D1C16849084164002094E72DE908
:101C1000FF5F4FF00108DFF8DC93B9F81AA0D9F89C
:101C20002C104FF6FF728B6802EAC3020C7D019400
:101C30000C7B03FB04F5ADB200954D6C002801D080
:101C4000164600E05608B5421ED191F83400401CFB
:101C5000C2B281F8342000254D64C88E40F00200E5
:101C6000C88699F80470CE6A7C4303FB0463CB6298
:101C70008B6A9A4206D1C20704D181F8345040F0F1
:101C80001000C886BDE8FF9F08B1500800E00020A2
:101C9000854201D1FFF7FCFC0198DFF85CB32044DA
:101CA0000390B8F1000F18D0D9F82C00017C82689D
:101CB0008B18416CA3EBD1035B1EDEB2C06A1044EB
:101CC000A0EBD100401EC9F8300001F00700C0F1C0
:101CD0000700FFF7C3FC054610E0D9F82C00027C92
:101CE000416C02EBD102D6B2C06A00EBD100C9F858
:101CF000300001F00700FFF7B1FC054699F80C0031
:101D000000FB0A6080B20290019C2AE004FB0AF00A
:101D100087B2D9F8300005F097FBF11928401BF87D
:101D2000012002430BF80120B448007A01280ED1AB
:101D3000D9F830100098084405F086FB0146029857
:101D4000294038441BF800200A430BF80020D9F83A
:101D50002C00D9F8301080680844C9F83000641CA1
:101D6000A4B20398A042D1D8B8F1000F02D04FF02E
:101D7000000896E7D9F82C00416C491C416481E7C2
:101D80009C48C06A416C002903D18168C900490898
:101D9000416401203BE72DE9F04F87B00026DFF8D2
:101DA00054A2DAF82C00017D0591017B01F0FF09B6
:101DB000017C049101898DB2BAF81A1002919AF847
:101DC0000C200299514389B20191416C082901D03C
:101DD000F9B120E090F83410491CCAB280F83420E0
:101DE00000234364C18E41F00201C1869AF8046069
:101DF000C46A05FB09F505FB0644C462846AA24275
:101E000006D1CA0704D180F8343041F01001C186F0
:101E1000E2E5FFF73DFCA84648E004983044039013
:101E2000DAF82C00C16A3144CAF83010761CF1B2DD
:101E3000B1FBF5F205FB121690F8440000F0070024
:101E4000FFF70CFC0746059C09EB040006902AE00E
:101E5000029904FB01F01FFA80FBDAF8300005F06C
:101E6000F3FA0399644A8B44384012F80B1001438B
:101E700002F80B106148007A01280DD1DAF8300021
:101E800005FB090005F0E0FA014601985A4B584459
:101E900039401A5C0A431A54DAF830002844CAF868
:101EA0003000641CE4B20698A042D1D85FEA080072
:101EB000A8F101081FFA88F8AFD1DAF82C00416CBC
:101EC000491C416488E52DE9F047DFF82881D8F8FE
:101ED0002C0001898DB2017DCEB2017BCFB290F88A
:101EE0004410CCB2082C01D0F4B11FE090F83410AB
:101EF000491CCAB280F83420C18E41F00201C1866B
:101F00000023436498F80460C46A7D4305FB0644DB
:101F1000C462846AA24206D1CA0704D180F8343070
:101F200041F01001C1869DE4FFF7B2FB3019C4B245
:101F300006EB0709A9F10109A14505DAD8F82C003B
:101F4000416C491C41648DE4D8F82C00A11BC06A87
:101F500005FB0100C8F8300005FB07012046FFF72C
:101F60003EFB0834E4B2E7E72DE9F14F90B00020E2
:101F700009900890002707900690059004901D4E48
:101F8000708BF26A117DD3680F9303F0FF0A137C04
:101F9000DCB213899BB2B2F84450ADB200951D1962
:101FA000ADB2367B4643B6B2B2F836C0CDF838C0D3
:101FB0005FEACC7C05D003FB0AFCCDF808C0019396
:101FC00009E0D2E909C80CFB08F8CDF808801FFA2F
:101FD0008CFCCDF804C04FF07F0C4FF080094FF01F
:101FE000FE084FF0010BCDF80CB092F81CB05FEA80
:101FF000CB7B05E0080000201408002078050020B5
:1020000009D00127BB46CDF820B0491CC9B2AAF1BE
:10201000020A0AF0FF0ADFF898B49BF806B0BBF199
:10202000000F22D04FF0010BCDF824B0DFF880B4C0
:102030009BF808B00BF1010B3CB94FF0FF0C2CFAE8
:102040000BFC6FEA0C0909F0FF0904EB030E86454F
:102050000BD14FF0FF0808FA0BF808F0FF086FEA01
:10206000080B0BF0FF0BCDF80CB0DDF840B0BBF166
:10207000000F18D092F834B0DDF83CE00BF1010B02
:102080000EFB0BFECDF834B0DDF800B0BB44DE45EE
:1020900009D10D9882F834000E9840F00200D086E5
:1020A00011B0BDE8F08FDDF838B04FF0000E5FEAF8
:1020B000CB7B11D0009F57451FD10E99FD4841F0B1
:1020C0000201D186C2F844E00079D46A0F994343F3
:1020D00001FB0340D062E3E7009B3B44976ABB42AD
:1020E0000BD17146C2F844E00E9840F0100040F069
:1020F0000200D08682F83410D2E7EF4B1F7A0AEB49
:1021000001035B1E0A9398E0DDE9083A53EA0A03EB
:102110000C9331D001FB00F39BB2DFF8A0A303EBDB
:10212000040B1AF80BB00BEA090BCDF81CB02B44CA
:102130005344DDF80CE013F801BC0BEA0E0B03F876
:1021400001BCCDF818B0012F16D101FB00639BB282
:1021500003EB040B1AF80BB00BEA090BCDF814B023
:102160002B445344DDF80CB013F801AC0AEA0B0A17
:1021700003F801ACCDF810A023461BE001FB00FAE8
:102180001FFA8AFA9A44DFF834E30AEB000B1EF8D0
:102190000BB00EF80AB0012F0AD101FB006A1FFA3A
:1021A0008AFA9A440AEB000B1EF80BB00EF80AB03C
:1021B0005B1C9BB2AB42E1D30C9BE3B301FB00433E
:1021C0009BB2DFF8F8A21AF803B00BEA0C0BDDF8AB
:1021D0001CE04BEA0E0B0AF803B06B1E0B9301FBDD
:1021E00000339BB21AF803B00BEA080BDDF818E0D5
:1021F0004BEA0E0B0AF803B0012F1CD1331901FB77
:1022000000339BB21AF803B00BEA0C0BDDF814E0B4
:102210004BEA0E0B0AF803B001FB006B0B9B5B440F
:102220009BB21AF803B00BEA080BDDF810E04BEA9A
:102230000E0B0AF803B0491CC9B20A9B8B423FF748
:1022400063AFD26ADDE900019A4C00FB01202063F4
:10225000029901440A98C0B2FFF7C1F9E06A416CE3
:10226000491C41641CE72DE9F04F93B083460020E0
:102270000E900D9084460C900B900A900990DFF818
:102280003492B9F81A10D9F82C30188984B2187D14
:10229000DA681292D2B21D7CB3F84460B6B20196ED
:1022A00099F80C604E43B6B2DF8EBE46FF0705D0EC
:1022B00004FB02F70597039204940BE0D3E9097835
:1022C00007FB08FACDF814A01FFA88F8CDF80C80A7
:1022D000BFB204974FF07F0A80270897FE27079721
:1022E000012706971F7FFF0707D04FF0010C01273A
:1022F0000D97401CC0B2921ED2B26D4FBF79E7B1AC
:1023000001270E976A4F4FF0FF083F7A7F1C3DB9B7
:1023100028FA07FA6FEA0A0909F0FF09CDF82090B8
:1023200004EB0509894508D108FA07F808F0FF070A
:102330000797079FFF43FFB206972F19BFB2BBF164
:10234000000F13D093F83480DDF84890DDF804B026
:1023500008F1010809FB08F9E344D94506D183F8DF
:1023600034804EF00200D88613B09AE65FEACE7948
:102370004FF0000811D0DDF804C094451DD14D4840
:102380004EF00201D986C3F844800079DA6A1299C6
:10239000444301FB0420D862E6E7019C6444D3F87F
:1023A00028C0644509D1C3F844804EF0100040F0C5
:1023B0000200D88683F83480D6E70244521ED2B297
:1023C0003D4CDFF8F8E094F80890ACE0DDE90D4C06
:1023D00054EA0C0411942ED002FB01F4A4B204EBD5
:1023E000050CDDF820801EF80CC00CEA080CCDF8B6
:1023F00030C03C447444DDF818C014F8014C04EAC1
:102400000C040B94B9F1010F15D102FB0164A4B2C5
:1024100004EB050CDDF820801EF80CC00CEA080C5B
:10242000CDF828C03C447444DDF818C014F8014CC1
:1024300004EA0C0409942C46A2F1010C22E002FBF0
:1024400001F81FFA88F8CDF808800CFB01F80EEBB4
:10245000040B18F80BB0DDF80880A044CDF84080DC
:102460000EF808B0B9F1010F0AD10CFB01E804EB3A
:10247000060B18F80BB0DDF84080B0440EF808B039
:10248000641CA4B2BC42DAD3119CECB302FB01542D
:10249000A4B21EF8048008EA0A08DDF830B048EA61
:1024A0000B080EF804807C1E0F9402FB014407E029
:1024B00028320020080000207805002014080020A1
:1024C000A4B2DDF81CB01EF8048008EA0B08DDF8A1
:1024D0002CB048EA0B080EF80480B9F1010F20D1A6
:1024E000741902FB0144A4B21EF8048008EA0A0829
:1024F000DDF828B048EA0B080EF8048002FB0164FE
:102500000F9A224492B200E00BE01EF80240DDF880
:102510001C8004EA0804DDF8248044EA08040EF86C
:1025200002400CF0FF0282423FF650AF019A03993D
:10253000DB6A891A049AFC4C491E01FB02312163B3
:10254000059A1144FFF74BF8E06A416C491C41645D
:102550000AE72DE9F14F94B000200C9080460B90D3
:102560000A900990DFF8C0B3BBF81A409BF80C0042
:10257000604385B2DBF82C00B0F8441089B20391B7
:10258000018989B2028A93B2D0F8149009F0FF024F
:102590000192C268139202F0FF0CC68EF20704D0BB
:1025A00001FB0CF20592049105E0D0E9092757439D
:1025B000059792B204924FF07F0A80220892FE277C
:1025C000012207920692027FD2070AD001220B92C3
:1025D00009F1010909F0FF020192139A921E02F01B
:1025E000FF0C5A18129292B20292D04A9279AAB370
:1025F00002220692CD4A01EB030B4FF0010E127A34
:102600009146521CA34511D1082A0FD2FF279740AB
:10261000FFB26FEA070B0BF0FF0BCDF81CB00EFA00
:1026200002FE0EF0FF0BCDF818B00CE0A3450AD166
:10263000B9F1070F07D1DDF848B0ABF1010B1FFA74
:102640008BFBCDF808B053B9082A08D24FF0FF0A27
:102650002AFA02FA6FEA0A02D2B2089204E01BB91F
:10266000B9F1070F00D10123149A92B1DDF82C9033
:10267000039A914490F83420521C02FB01FBB9EB01
:10268000CB0F06D180F8342046F00201C18615B088
:1026900007E55FEAC6794FF0000211D0DDF80C9033
:1026A000B9EBC10F2ED1A04B46F00204C4864264A0
:1026B0001B79C46A139A594302FB0141C162E6E7E0
:1026C000DDF82C900399D0F824B04944DFF85892F3
:1026D000B1EBCB0F16D1426446F0100121F002019C
:1026E000C18699F81230012B02D98369012B02D8D7
:1026F00090F8213013B141F00201C18600F8302F6B
:102700000271C4E78A4A019902F5277692F8089087
:102710000CEB01020F927AE0DDF830C058EA0C02AF
:10272000119217D001FB04F292B202EB030CDDF818
:1027300020B016F80CC00CEA0B0CCDF828C0B9F18B
:10274000010F07D12A441A44DDF820C0B25C02EA26
:102750000C0209921A46DDF808C0ACF1010CCDF864
:1027600040C02EE001FB042C1FFA8CFC16F80CB0C4
:102770004FEA4B0B06EB0C0E9EF801E00EF0800EBC
:102780004FEADE1E4BEA0E0B06F80CB0B9F1010F52
:1027900015D102EB050C01FB04CC1FFA8CFC16F8DA
:1027A0000CB04FEA4B0B06EB0C0E9EF801E00EF05E
:1027B000800E4FEADE1E4BEA0E0B06F80CB0521CE0
:1027C00092B2DDF840C06245CCDB119AEAB101FB60
:1027D000043292B216F802C00CEA0A0CDDF828B0F6
:1027E0004CEA0B0C06F802C0B9F1010F0DD1EA1842
:1027F00001FB042292B216F802C00CEA0A0CDDF8C2
:1028000024B04CEA0B0C06F802C0491CC9B20F9A5E
:102810008A4281D8C26A0498434908FB002203987F
:1028200002EBD0000863039800F00700FEF716FFE4
:102830008346DDF804A04CE00298401E0E900AFB8F
:1028400004001FFA80F90C9958EA01000D9009D094
:1028500016F8090007990140384041EA400006F89F
:10286000090004E016F80900400006F809002E48A7
:10287000006B04F0E9FD10EA0B0F05D016F8090013
:102880000699084306F809002948007A012817D15B
:102890000AFB04510E98084480B20D9939B1315C9D
:1028A000079A0A40394042EA4101315402E0315C62
:1028B000490031541C48016B0598084404F0C4FDDC
:1028C00019480499026B114401630AF1010A0AF0E4
:1028D000FF0A0F985045AFD81348C06A416C491C95
:1028E0004164D4E62DE9F14F92B000200B9081466F
:1028F000824609900890DFF830B0BBF81A40DBF848
:102900002C004369D9B20191C168119101F0FF0C0B
:1029100001691091CDB2018989B29BF80C20624304
:1029200096B2C78EFA0705E0080000202832002082
:102930007805002004D001FB0CF20392029107E01D
:10294000D0E9092802FB08F8CDF80C8092B2029277
:10295000FE220792012206927F2205928022049293
:102960009046027FD2070CD04FF0010A4FF00109C8
:102970004FF040085B1CDAB20192119A921E02F0ED
:10298000FF0C4A1993B2F84A9279A2B301220B9232
:102990004FF04008F44A127A9646521CA5B9082A0C
:1029A00012D24FF0FF0828FA02F8CDF81480DDF8B3
:1029B00014806FEA080808F0FF08CDF810804FF087
:1029C000800828FA02F804E01DB9BEF1070F00D113
:1029D0000125DDF840B08B44A3450DD1082A0BD268
:1029E0004FF0FF0B0BFA02FB0BF0FF020792079A66
:1029F000D243D2B2069208E0A34506D1BEF1070F3A
:102A000003D1109A4B1E1A4493B2D84ADDF848B04D
:102A1000D26ABBF1000F526C13D090F834B002EBC5
:102A20000A0E0BF1010BCDF83CB00BFB01FBBEEB2A
:102A3000CB0F06D10F9980F8341047F00201C18600
:102A400092E45FEAC77E4FF0000B12D0DFF81CA3C0
:102A5000B2EBC10F2ED147F00202C286C0F844B0DB
:102A60009AF80440C36A119A614302FB0131C162C2
:102A70007AE402EB0A01426ADFF8F0E2B1EBC20F3E
:102A800018D1C0F844B047F0100121F00201C1860E
:102A90009EF81220012A02D98269012A02D890F8F0
:102AA000212012B141F00201C18680F830B080F8D7
:102AB00034B059E4AE4A019902F5277792F808A09C
:102AC0000CEB01020D9278E0DDF82CC059EA0C0203
:102AD0000E921AD001FB04F292B202EB030CBC443A
:102AE000DDF818B01CF801CC0CEA0B0CCDF824C0B2
:102AF000BAF1010F09D132441A443A44DDF818C042
:102B000012F8012C02EA0C0208925A1E92B22AE034
:102B100001FB04FC1FFA8CFC944417F80CB04FEA3C
:102B20005B0B0CEB070E1EF801EC4FEACE1E4BEAD6
:102B30000E0B07F80CB0BAF1010F12D101FB046CB7
:102B40001FFA8CFC944417F80CB04FEA5B0B0CEBAB
:102B5000070E1EF801EC4FEACE1E4BEA0E0B07F8EB
:102B60000CB0521E92B2AA42D2D80E9A1AB301FBEE
:102B7000043292B23A44DDF81CB012F801CC0CEAEF
:102B80000B0CDDF824B04CEA0B0C02F801CCBAF1C6
:102B9000010F10D1F21801FB042292B23A44DDF881
:102BA0001CB012F801CC0CEA0B0CDDF820B04CEA9A
:102BB0000B0C02F801CC491CC9B20D9A8A4283D889
:102BC000C36A029A406C09FB02336849A2EBD00247
:102BD000521E1A440A6300F00700C0F10700FEF716
:102BE0003DFD0A90DDF804B058E00BFB04501FFADD
:102BF00080FA0B9959EA01000C900AD017F80A00E4
:102C000004990140059A104041EA500007F80A0073
:102C100004E017F80A00400807F80A005348006B60
:102C200004F012FC0A99084205D017F80A0040EA9D
:102C3000080007F80A004E48007A012825D1A81993
:102C40000BFB04001FFA80FA0C9850B117F80A0029
:102C500004990140059A104041EA500007F80A0023
:102C600004E017F80A00400807F80A003F48016B23
:102C70000398084404F0E8FB0A99084205D017F8C5
:102C80000A0040EA080007F80A0038480299026B77
:102C9000114401630BF1010B0BF0FF0B0D9858452C
:102CA000A3D83248C06A416C491C416450E42DE904
:102CB000F84F2E4BB3F81AA0D96A08891FFA80F989
:102CC000087DC7B2087C00F0FF08C868C4B20A8D4E
:102CD00095B209FB04F292B200920A7FD20703D0A8
:102CE0007F1CFFB2A41EE4B24A6C1E79D1F82CC03E
:102CF000504309FB06F600FB06C01863521C4A64E9
:102D0000AA420DD100224A64CA8E42F0020242F069
:102D10001002CA860D79042D02D142F00802CA863B
:102D200004F092FB3E4604EB060B10E0444608EB31
:102D3000090508E0FEF74AFC0E4A06FB0AF12244A8
:102D40008854641CA4B2A542F4D8761CB6B2B3452C
:102D5000ECD80748007A012823D1044C0098216B55
:102D6000084404F071FB1AE028320020080000201B
:102D70007805002014080020454608EB09060AE003
:102D8000FEF724FC217B394401FB0AF1FE4A2A4468
:102D900088546D1CADB2AE42F2D87F1CBFB2BB45A9
:102DA000EAD8BDE8F88FF948C06A817F182900D9B0
:102DB0007DE719296FD2DFE801F06E0D6E0F131752
:102DC0001B1F222427292B2D37414B5356595C5E5C
:102DD00062666A00FEF78CBC00210120FEF713BD7D
:102DE00000210846FEF70FBD00210120FEF794BD2B
:102DF00000210846FEF790BD0120FEF79DBEFEF7BC
:102E0000FCBE0020FEF703BFFEF7BABFFEF7C3BF4C
:102E1000FFF759B890F83600C00702D00020FFF73E
:102E2000A3B80120FFF7A0B890F83600C00702D081
:102E30000020FFF718BA0120FFF715BA90F8360006
:102E4000C00702D00020FFF784BB0120FFF781BB41
:102E500090F83600C00701D0002043E5012041E58D
:102E60000020FFF781B80020FFF7FDB90020FFF731
:102E700070BB002036E501210846FEF7C4BC0121E5
:102E80000020FEF7C0BC01210020FEF745BD012156
:102E90000846FEF741BD70472DE9F041BB4D6A8BF6
:102EA0002B7B53439FB2B0F5806F1FD840291DD8AC
:102EB00000F007048023E340EE6ADFF8CCC2B47F61
:102EC000E40709D001FB02F40CEBD00514F80580EF
:102ED00048EA030804F80580B47FA40706D501FB7F
:102EE00002C107EBD0000A5C1A430A54BDE8F08126
:102EF0002DE9F04704460D4691469A46A9EB040792
:102F0000AAEB0506002F5DDB002E2EDBB74216DB99
:102F100007EBD770A6EB60080DE029462046FFF7C7
:102F2000BBFFB8F1000F03DD6D1CADB2A8EB0708C5
:102F3000641CA4B2B0444C45EFD9BDE8F08706EB61
:102F4000D670A7EB60080DE029462046FFF7A4FFE6
:102F5000B8F1000F03DD641CA4B2A8EB06086D1CD9
:102F6000ADB2B8445545EFD9E7E7C6F1000847458B
:102F700013DB07EBD770A8EB60060BE02946204671
:102F8000FFF78AFF002E02DD6D1EADB2F61B641C3A
:102F9000A4B246444C45F1D9CFE708EBD870A7EB73
:102FA00060060CE029462046FFF776FF002E03DD81
:102FB000641CA4B2A6EB08066D1EADB23E44554596
:102FC000F0D2BAE77F42002E2DDBB74215DB07EBCC
:102FD000D770A6EB60080DE029462046FFF75CFF9E
:102FE000B8F1000F03DD6D1CADB2A8EB0708641E3D
:102FF000A4B2B0444C45EFD29FE706EBD670A7EBE6
:1030000060080DE029462046FFF746FFB8F1000FA3
:1030100003DD641EA4B2A8EB06086D1CADB2B84473
:103020005545EFD989E7C6F10008474513DB07EBA3
:10303000D770A8EB60060BE029462046FFF72CFF6F
:10304000002E02DD6D1EADB2F61B641EA4B2464416
:103050004C45F1D271E708EBD870A7EB60060CE0A5
:1030600029462046FFF718FF002E03DD641EA4B298
:10307000A6EB08066D1EADB23E445545F0D25CE7A6
:103080002DE9F84F002000904048C66A308A83B28C
:1030900030891FFA80FC307F7169C207F06807D061
:1030A000491C1FFA81F8801E80B20121009102E0C4
:1030B0001FFA81F880B2009C08F0FF02334908EB48
:1030C00000074D8B1BE0D8B2002103EB0C0910E088
:1030D000DFF8BCA001EB041BDFF8ACE01AF80BB082
:1030E00002FB05FA86440AF80EB0401CC0B2491C27
:1030F000C9B28145ECD8521CD2B2641CE4B29742EA
:10310000E1D82448007A012827D1009C08F0FF026A
:1031100021E0D8B20021DFF8748003EB0C0A98F8A4
:103120000C9012E0DFF8708001EB041B18F80BE044
:10313000DFF854B002EB090808FB05F8834408F8EF
:103140000BE0401CC0B2491CC9B28245EAD8521CEF
:10315000D2B2641CE4B29742DBD8104800780B4F1F
:10316000716A01EB8000386304F06EF9F86A4FF67B
:10317000FF72018A02EAC104007DC5B2FEF726FA99
:10318000204486B20CE00000140800200800002053
:103190003C280020780500203C2C00205C05002005
:1031A000FEF714FA00EB0508FEF710FA204484B28B
:1031B000FEF70CFA4319224641463046FFF798FEC7
:1031C000F86AC18E41F0020141F00801C186E8E5CC
:1031D0002DE9F04F85B04FF480642146FE4805F09C
:1031E00000F92146FD4805F0FCF8FD4EFA4CFD4D76
:1031F000F06AA4F12804C18E8A0654D521F020017A
:10320000C186C26A326321462220FDF786FF6078BC
:10321000A178000440EA0120E17808432860207981
:10322000287160796871A079A871E079E871207AD5
:103230002872607A6872A07AA872E07AE872607B7D
:10324000A17B000440EA0120E17B0843E860607C48
:10325000A17C000440EA0120E17C08432861607DF4
:10326000A17D000440EA0120E17D08436861607EA1
:10327000217E40EA01202883E07EA17E40EA0120F1
:103280006883207F2877A07F617F40EA012094F83F
:103290002010E27F41EA0221298494F8211085F868
:1032A0002210C008E883287A4FF00102410702D0BB
:1032B00002EBD00100E0C108A87A430702D002EB7C
:1032C000D00000E0C0086A7A4A4302F0FF09E97AB8
:1032D0004143C8B2029029683163C34B1A68C2F3F4
:1032E00007400C2801D90C38C0B2C2F307220C23C6
:1032F000B2FBF3F200EB80001044C0B2B84E01EB19
:1033000080023263B44904202839FDF706FFB24930
:103310002839487802048878C97842EA00200843AE
:10332000306304F091F8FEF751F94FEAD008FEF748
:103330004DF90746FEF74AF94FEAD00AFEF746F97B
:103340000190A8480079C0071DD001983E46384436
:10335000DFF884B2049013E0444608EB0A050BE062
:10336000FEF734F9014604EB06101BF80020114368
:103370000BF80010641CE4B2A542F1D8761CF6B23A
:103380000498B042E8D89748007980071CD5944843
:10339000006B001D04F058F80198904E07EB000BED
:1033A00010E0454608EB0A0408E0FEF70FF905EBCC
:1033B0000711725C104370546D1CEDB2AC42F4D82E
:1033C0007F1CFFB2BB45ECD8864C854D20688649F2
:1033D0000988C1F3072100EB8102F0322A637E499C
:1033E00004202839FDF799FE7B49283948788A78E6
:1033F0000004C97840EA02200843286304F024F856
:10340000FEF7E4F84FEAD008FEF7E0F80746FEF7CB
:10341000DDF84FEAD00AFEF7D9F801906079C007CD
:103420001DD001983E463844DFF8ACB1039013E05C
:10343000444608EB0A050BE0FEF7C8F8014604EB2A
:1034400006101BF8002011430BF80010641CE4B2B6
:10345000A542F1D8761CF6B20398B042E8D861488C
:10346000407980071CD55E48006B001D03F0ECFF1F
:1034700001985A4E07EB000B10E0454608EB0A0492
:1034800008E0FEF7A3F805EB0711725C10437054D7
:103490006D1CEDB2AC42F4D87F1CFFB2BB45ECD83A
:1034A000504EDFF83CB1306800F53470CBF8300096
:1034B00003F0CAFFDBF82C00017ACFB2007B00F0EA
:1034C000FF08002512E00024DFF80CA10AE0FEF757
:1034D0007DF804EB05111AF8012010430AF80100E9
:1034E000641CE4B2BC42F2D36D1CEDB24545EAD394
:1034F000DBF82C0001898089414388B2DBF8301069
:10350000084403F0A1FF002512E00024DFF8CCA05E
:103510000AE0FEF75BF804EB05111AF801201043EE
:103520000AF80100641CE4B2BC42F2D36D1CEDB297
:103530004545EAD3307EC5B2F079C00772D0F06855
:10354000CBF8300003F080FF0446DBF8302022493E
:10355000521C28392046FDF7E0FD274602211E4A6D
:10356000283A13E0505C6E2803D0792801D07228E5
:103570000AD1084604E013185B781354401CC0B20B
:10358000A042F8D37F1EFFB2491CC9B2A142E9D3C1
:103590000024DFF858A0DAF8080020F08050CAF8BC
:1035A000080051784D2903D140F08050CAF8080036
:1035B00009482838807859282BD1306900EB490018
:1035C000CBF83000347F0094B07E737AC1B2327A87
:1035D000284602F0B7FF0BE03C2800203C2C0020DE
:1035E00008000020F00700205C050020780500207E
:1035F0003069CBF830000094B07E327AC1B25019F5
:10360000737AC0B202F09EFF0224307A05EB4000CC
:10361000C5B24FF00008DAF8080020F00060CAF8E0
:1036200008004BE04CE0FE484146005D03F0ECF83A
:10363000DAF808104A010FD57169029A00FB0210EE
:10364000CBF830004FF00008F079000702D596F86B
:10365000220016E0307F14E0326900FB0920CBF82D
:103660003000307F0A0108D4B8F1000F02D04FF0CB
:10367000000806E04FF0010803E021F00061CAF8FD
:1036800008100090DAF808004001002801DAF37A07
:1036900000E0737A01DAB27A00E0327AB07EC1B229
:1036A000284602F04FFFDAF80800400101D5B07A51
:1036B00000E0307A2844C5B2641CE4B2BC42B2D304
:1036C000F079800773D5F06803F0BEFEF168401C06
:1036D0000844CBF8300003F0B7FEDBF830100844A4
:1036E000401CCBF8300003F0AFFEFDF76FFFC708BA
:1036F000FDF76CFF8046CB480068C0F30740401ED2
:10370000C1B2DBF830007943801C01FB0800CBF824
:10371000300096F82210C90722D003F095FE96F8E3
:103720002000C5B2DFF8F89209F1280914E0B07F53
:10373000C4B20BE0FDF74AFF014604EB051019F88F
:103740000020114309F80010641CE4B2F08B3844E7
:10375000A042EFD86D1CEDB2308C4044A842E6D8B0
:1037600096F82200800722D5DBF8300003F06CFECB
:1037700096F82000C5B2DFF8B09214E0B07FC4B272
:103780000BE0FDF723FF014604EB051019F80020BC
:10379000114309F80010641CE4B2F08B3844A042D5
:1037A000EFD86D1CEDB2308C4044A842E6D8DBF86F
:1037B0002C00B1798177316801F5F071416205B073
:1037C000BDE8F08F2DE9F843984FF86AC18E41F0BB
:1037D000020141F00801C186468F00240025F1B2A4
:1037E000DFF84C82AA2906D198F8001000295AD196
:1037F000068F082433254FF00A0913E0332D07D034
:1038000098F80000F0BBF86A068F0824332509E019
:10381000B8F800000004000C3DD1F86A808C86B234
:1038200010245525D8F80000E040C0B2B0FBF9F1F3
:10383000F86A828F036C01FB0231396390F8231020
:103840000091416C90F82800C1F30743CAB2C1B29D
:10385000304602F0DFFED8F80000E040C0B2B0FB16
:10386000F9F109FB1101F86A828F036C01FB023147
:10387000396390F823100091426C90F82800C2F34D
:10388000074300E007E0C1B2D2B2901980B202F063
:10389000C1FE552DB2D1D8F80000002803D1BDE8F3
:1038A000F84303F04CB8BDE8F8832DE9F84FDFF892
:1038B0007C91D9F82C00C18E21F48071C186C06A38
:1038C000C9F8300003F0C0FD4FF6FF7A0AEA002580
:1038D000002004F05BF9574EB4892C43002004F01B
:1038E00055F9B0890AEA0027002004F04FF9B5899C
:1038F0003D43002004F04AF9B089002004F046F965
:10390000B0890702002004F041F9B08938434FEA3A
:103910000028002004F03AF9B78947EA0807002098
:1039200004F034F9B08900F0FF08600704D00120EA
:1039300000EBD400C6B201E0C4F3C706D9F82C10DE
:1039400008690AEAC00BB9F81C20130A0A20B3FB65
:10395000F0FC00FB1C3A0AF1010AB0EB122F02D175
:103960004FF00B0A12E011D806FB05F000EB400205
:1039700002EBC0003844C9F83000CDF80080087D63
:10398000EBB2C1B2E2B2584602F044FE0BEB0400C7
:103990001FFA80FB0AFB06FA0AFB0570C9F8300023
:1039A000CDF80080D9F82C00EBB2E2B2007DC1B2B4
:1039B000584602F02FFE0BEB04001FFA80FAC9F8FC
:1039C0003070CDF80080D9F82C00EBB2E2B2007D67
:1039D000C1B2504602F01EFE0AEB04001FFA80FA44
:1039E00099F81C000A2802D84FF0010108E0A0F164
:1039F0000A010A2901D20B2102E01E282CD00C2139
:103A0000714301FB0570C9F83000CDF80080D9F88A
:103A10002C00EBB2E2B2007DC1B250460CE00000D7
:103A200014280020580500203C2C0020080000200D
:103A30005C0500200030014002F0ECFD0AEB0400C0
:103A400080B299F81C10CAB20A21B2FBF1F301FB53
:103A50001322511C12B102E00421D1E70B21714362
:103A600001FB0571C9F83010CDF80080D9F82C1091
:103A7000EBB2E2B2097D02F0CDFDD9F82C00C18E87
:103A800041F0020141F00801C186BDE8F88F2DE93F
:103A9000F047002500240127FB4EDFF8F083A14604
:103AA00014E004EB440000EB041008EB800090F8F5
:103AB0003600000708D507FA04F02843C5B2F06ABB
:103AC00080F84890FDF7B4FB641CE4B2B07B8442FC
:103AD000E7D3B07BC0F10801FF20C840EB4918399B
:103AE000854201D1EA48077008D1B27C3046012AEC
:103AF0000DD8407B00F00300012808D0707B00F057
:103B0000030001280AD1487AB27D904206D1886824
:103B100040F0005088600120BDE8F0870020FBE7FE
:103B200070B50021D84CE36A9D7F606AE478192261
:103B300004446018B0FBF2F602FB1600C01C83F8C8
:103B40003200491CC9B21928F3D2A842F1D093F827
:103B5000320070BDCC48C06AD0E9021251430079EE
:103B6000042801D00C2307E01E2305E018460200BC
:103B7000A0F10100C0B2FAD1491EF7D270472DE979
:103B8000F041C14C0026E670C04F0125183FE7E028
:103B900001EB4100BD4A00EB011002EB8000E06246
:103BA0000279012A04D97B7A05FA01F10B437B7271
:103BB000072A5ED2DFE802F0C504728AA4ADC00015
:103BC00090F8311009BB90F83610C9061DD58269EE
:103BD00090F84810521E91420AD180F84860C18E78
:103BE00041F00801C186FFF752FF00287ED10CE0AA
:103BF000491CC9B280F848108269B1FBF2F302FB9C
:103C0000131180F84810FDF713FBE06AC18E8A0794
:103C10003BD54A072DD521F0020121F00401C186D0
:103C2000C80712D0FFF77CFFE16A887791F835006A
:103C3000401CC0B281F835008A6A904205D181F8F3
:103C40003560C88E40F01000C886E06AC38ED90681
:103C500077D5826990F84810A2F1010C614509D12D
:103C600080F8486043F00801C186FFF710FF002884
:103C70003CD166E0491CC9B2B1FBF2F302FB13115F
:103C800080F84810FDF7D4FA5BE090F8301071BB73
:103C9000C17F80F83010FFF786F852E090F83600C8
:103CA000800601D5FFF794FA607CE17820FA01F2F2
:103CB000D20746D005FA01F1884360747548007850
:103CC00008B9FFF785FAFFF7DBF93AE090F836001C
:103CD000400601D502F033FEE06A408FEE2830D076
:103CE000607CE17820FA01F2D20701E07EE006E094
:103CF00027D005FA01F188436074FFF763FD20E0E7
:103D000090F83010E9B9C17F80F83010FEF7CFFF8E
:103D100017E090F83600000601D503F0EAF8607C61
:103D2000E17820FA01F2D2070BD005FA01F18843BD
:103D3000607403F0DEF804E0C08EC00501D5FFF723
:103D4000B4FDE06A017FCA0707D090F8332022B99A
:103D50000A2280F8332001F01DFAE078401CE07060
:103D6000E178A07B8142FFF413AF787AA17D88428D
:103D700006D161792046052902D94671FFF787FEF1
:103D8000DFF8148198F8060000282FD0B868C00327
:103D900001D501F058FB98F80900A0B198F80B1074
:103DA000002923D198F80A1088F80B1001280ED0AA
:103DB000022811D0032819D1607A90B16672BDE84B
:103DC000F04102F01AB8BDE8F04101F03CBBBDE89B
:103DD000F041012001F091BDBDE8F041002001F06B
:103DE0008CBD6572BDE8F04101F02DBBBDE8F081EE
:103DF0002DE9F04F0021244ADFF8A0A0578B92F85C
:103E000007E07D1E10F81120120200EB410393F829
:103E100001B04BEA020B002601F1060909FB07A3DA
:103E200015E009FB07F20AEB060412F804C04FEA9A
:103E30004C0C02F804C0761C13F8068008F08008C9
:103E40004FEAD8184CEA080C02F804C0F6B2AE42A9
:103E5000E7DB5A5D52000BFA0EFB0BF40044E40B57
:103E600022435A55491CC9B21429CBD306490EF135
:103E7000010E0EF0FF00C8710A2804D90020C87195
:103E80008879401C88719BE4080000209005002080
:103E9000020000205C0500202832002014080020C9
:103EA0002DE9F04F0021FF4ADFF8F4A3578B92F879
:103EB00007E07D1E01EB4102835C1C020244537843
:103EC00023431B0292F802B04BEA030B002601F1D8
:103ED000060909FB07A315E009FB07F20AEB060434
:103EE00012F804C04FEA4C0C02F804C0761C13F818
:103EF000068008F080084FEAD8184CEA080C02F84F
:103F000004C0F6B2AE42E7DB5A5D52000BFA0EFB7C
:103F10000BF40004E40D22435A55491CC9B214297C
:103F2000C8D3E0490EF1010E0EF0FF00C87114284D
:103F300004D90020C8718879401C887140E42DE9BB
:103F4000F047D84EF06A90F83010002979D1C17F3F
:103F500080F8301003F096FED3480068020EC0F3DC
:103F60000749C0F30724C5B2D0480068C0F307472B
:103F7000C0F3072C00F0FF0896F806A00A2006F50B
:103F8000EE71BAF1170F7AD2DFE80AF00C10151EA5
:103F9000292E374247505C60656A7A838E929BA6D1
:103FA000ABB4BF00BDE8F047C14821E7BDE8F0472A
:103FB000BF4850381CE7B2FBF0F0BDE8F04700EB1B
:103FC000800001EBC00013E7B2FBF0F3BDE8F0475F
:103FD00000FB132000EB800001EBC00008E7BDE808
:103FE000F047B04838305BE7B4FBF0F0BDE8F0478D
:103FF00000EB800001EBC000FAE6B4FBF0F200FB3E
:104000001240BDE8F04700EB800001EBC000EFE696
:10401000BDE8F047A348743042E7B5FBF0F0BDE8D7
:10402000F04700EB800001EBC000E1E6B5FBF0F2E9
:1040300000FB1250BDE8F04700EB800001EBC00030
:10404000D6E66CE0BDE8F0479A4829E7BDE8F047BE
:104050009448B03024E7BDE8F0479248EC301FE7C1
:10406000A9F10109072099FBF0F100FB1190BDE8CF
:10407000F0479149C0EB001001EB800010E749E0E8
:10408000B7FBF0F0BDE8F04700EB800001EBC000AB
:10409000AEE6B7FBF0F200FB1270BDE8F04700EBB4
:1040A000800001EBC000A3E6BDE8F0478348F7E6D7
:1040B000BCFBF0F0BDE8F04700EB800001EBC00076
:1040C00096E6BCFBF0F2BDE8F04700FB12C000EB47
:1040D000800001EBC0008BE6BDE8F04777483C303C
:1040E000DEE6B8FBF0F0BDE8F04700EB800001EB46
:1040F000C0007DE6B8FBF0F200FB1280BDE8F0479F
:1041000000EB800001EBC00072E6BDE8F0476B48B1
:104110007830C5E60020B071694901200870FBE4E1
:10412000684801786848A0390B2909D2DFE801F016
:10413000060809080C0E1008120815004FF0DC7074
:1041400070474FF02570704760487047604870476F
:10415000604870474FF0A56070475F48704710B5E2
:104160000120FCF7C4FE06205C4A02F12801135C22
:104170000B54401CC0B21228F9D38A79FF20FF2AC1
:1041800002D088224A7100E048710871BDE81040F1
:104190000020FCF7ACBE10B510280CD840F0A004ED
:1041A0000120FCF7A4FE4D4828300476BDE81040FD
:1041B0000020FCF79CBE10BD2DE9FC5F414C08348B
:1041C000002647A003C8CDE900013E4D183D4648F2
:1041D000018821F0200101804448DFF80CB1314F03
:1041E0000078ABF10C0B012858D0E84604F047F8F2
:1041F00018F80610884252D1761CF6B2062EF5D376
:1042000004F03DF8354E4FF0010A28364FF400080F
:104210004FF0000977286DD016DC354C2F4D0D2856
:1042200069D008DCA0F10700062838D2DFE800F0EA
:1042300025879AA537DE612879D0622878D063284F
:1042400077D06428D7D1BDE0832873D00CDC7D28DB
:1042500071D004DC78286FD07C28CCD115E180287F
:104260006BD08228C7D136E1842867D0862877D0E2
:10427000AB2876D0FE28BED18EE1882004F01FF84E
:10428000002603F0FCFFA855761CF6B2082EF8D3E2
:104290000021124803F0EBFD00202DE0B0E218E20F
:1042A0001408002008000020580500205C050020AC
:1042B00034020020DC0400207403002030010020C0
:1042C0000100002018FC0008FFFFDF0660796E0384
:1042D000402BDC0318FC4B04FFFF030614280020CE
:1042E000AA55AA55000000000C3801402505002001
:1042F0007805002060E184E0F94B00EB400101EB20
:10430000001103EB8101CA8E42F0200242F040020C
:10431000CA86401CC0B20828EFD3A06840F0005005
:10432000A06087F81390882003F0C9FF76E22BE0A5
:1043300034E03DE0E0E0BFE083E04EE1E7E0A0688C
:1043400020F0004040F00050A06087F815908820D1
:1043500003F0B5FFB8F10108FCD203F0E4FF5DE221
:10436000F1E0FDE0FCF792FE882003F0A8FF87F85B
:1043700015A0207DC007D9D17CE103F080FFC0F1FA
:10438000FF04002C7ED039E10120FCF7B0FD96F847
:104390002200002877D086F8229042E10120FCF725
:1043A000A6FD96F8210000286ED086F8219055E1F0
:1043B0000120FCF79CFD96F8200000287BD086F8B1
:1043C00020903CE103F05BFF04460120FCF78FFDE9
:1043D00086F82A400020FCF78AFD882003F06FFF52
:1043E000B8F10108FCD203F09EFF17E2062403F0A7
:1043F00046FF2855641CE4B2122CF8D3FFF7AFFE39
:104400000CE2882003F05BFF0120FCF770FD002721
:1044100003F035FFE8557F1CFFB2092FF8D3A878C9
:10442000E97850EA012071D000203218295C82F826
:104430002010401CC0B20928F7D30020FCF757FD1C
:10444000ECE103F01CFFFCF721FE03F081F80020F3
:10445000386302F0F9FFFF2804D0002003F051F880
:1044600003F076F80120FCF742FD4FF6FF70401E86
:10447000FDD2032003F023FFFFF752FE20F0704926
:104480004C4609E1B9E0CAE0E6E0B87A0028ACD0D1
:1044900087F80A900120FCF72AFDF87AB07700200F
:1044A000FCF725FD882003F00AFFB8F10108FCD2D3
:1044B00003F039FFB2E1C0E003F0E1FE411E032941
:1044C00093D2F872A52003F0FAFE5A2003F0F7FE0B
:1044D00087F80AA0A2E10820386302F0B5FF0024A3
:1044E000804DA889C0B203F0EAFE002003F04EFB25
:1044F000641CE4B2092CF4D39D2003F0E0FE1120EB
:1045000003F0DDFE012003F0DAFE87E13DE19D20AE
:1045100003F0D5FE112003F0D2FE012003F0CFFE00
:10452000002003F0CCFE002003F0C9FE802003F041
:10453000C6FE002003F0C3FE002003F0C0FE2020D2
:1045400003F0BDFE6AE103F09AFEFFF724FE882027
:1045500003F0B5FEB8F10108FCD203F0E4FE5DE122
:1045600003F08DFE044603F08AFEFE2873D0240279
:10457000044303F084FE0002386303F080FE396BCD
:1045800008430002386303F07AFE396B084338634E
:1045900002F05AFF534DF2E0042003F090FE002594
:1045A00014F8010B03F08BFE6D1CEDB20A2DF7D34E
:1045B000042003F084FE31E1387D00288AD00120F8
:1045C000FCF795FC03F05BFE0446A4F108000C2800
:1045D0009BD286F840404125E9E0387D002894D000
:1045E0000120FCF784FC03F04AFE86F856000446DE
:1045F000601E132889D25725F1E010240120FCF712
:1046000076FC86F829400020FCF771FC882003F036
:1046100056FEB8F10108FCD203F085FEFEE086F8F4
:1046200022A00020FCF763FC882003F048FEB8F1CC
:104630000108FCD203F077FEF0E086F820A000200D
:10464000FCF755FC882003F03AFEB8F10108FCD2D3
:1046500003F069FEE2E082E086F821A00020FCF78A
:1046600046FC882003F02BFEB8F10108FCD203F0D1
:104670005AFED3E0A06840F0004040F00050A06037
:104680001948016841F00F010160C7E003F046FEE0
:10469000641E01D103F047FEBBF800008006F5D58B
:1046A00012480088040203F0EAFD2043050203F0EB
:1046B000E6FD284300F1080406F8784F200A7070E0
:1046C000200CB070200EF0700948844202D90420FA
:1046D0007870A3E0022038630026B24626E000008E
:1046E00090050020003001400C08014004380140D2
:1046F000FAFF0F004D4605E003F010FE6D1E01D1DC
:1047000003F011FEBBF800008006F5D5FE480088D6
:10471000C5B2284602F0F5FE386B401C386303F042
:10472000FDFD14B17019C6B200E0AA46641EE1D2C4
:104730004FF6FF70401EFDD2B2450DD10020386308
:10474000882002F0DEFE0020FCF7D1FB882003F079
:10475000B6FDB8F10108FCD203F0E5FD5EE02402ED
:1047600003E015F8010B03F0AAFD641EF9D255E031
:1047700003F0A5FD002003F009FAA889C0B2641E69
:10478000F6D2E2491020086048E0FF2086F82800B1
:104790000020FCF7ACFBA06820F00040A0603DE0EA
:1047A00003F06DFD70556D1CEDB2641EE4B2002C7B
:1047B000F6D1AB2086F855000020FCF798FB882046
:1047C00003F07DFDD248401EFDD203F0ACFD25E094
:1047D00003F055FD70556D1CEDB2641EE4B2002C63
:1047E000F6D1AB2086F855000020FCF780FB88202E
:1047F00003F065FDC648401EFDD203F094FD0DE0B8
:10480000BBF80000800609D5BF480088C1B2387ADD
:10481000C82803D2BF4A1154401C3872BA48083025
:10482000018841F020010180BDE8FC9F4FF08040ED
:10483000018A21F0010101827047B748018821F007
:1048400001010180B4481038018801F0FE010180A7
:104850007047F0B5B148018821F001010180B04FE7
:10486000388BB0F5C87F01D2401C3883AD4EB56897
:10487000002D4FDB387C401E00F0FF0C87F810C085
:104880000020A74906F118048B7B13E000EB4001E0
:1048900001EB001104EB810191F8332012B1521E9B
:1048A00081F8332091F8302012B1521E81F8302067
:1048B000401CC0B29842E9D39B49C87A08B1401E57
:1048C000C872BCF1000F25D17879401C7871C820DE
:1048D0003874786A401C7862002112E001EB4100D4
:1048E00000EB011004EB800090F831209AB190F8B1
:1048F00036C05FEA8C7C02D5521E80F83120491CFC
:10490000C9B29942EAD3307BC00703D0F88B58B1C3
:10491000401EF883F0BDC28E42F00402C28690F8B9
:10492000212080F83120EAE70020F06045F00050B7
:10493000B060F0BD2DE9F0417C487D490968C1F3C4
:104940000F217A4A08321278FF2A5ED0D243D2B2BF
:104950004378047843EA042CC378847843EA042635
:104960004379047943EA0427C379807943EA00282C
:104970006C4BA0246F4D9868614540F000500FD1FA
:10498000D10861F3DF70986000283EDA0120FCF75F
:10499000AEFA85F83840BDE8F0410020FCF7A7BA30
:1049A000B1420FD1910861F3DF70986000282CDAD2
:1049B0000120FCF79CFA85F83840BDE8F041002062
:1049C000FCF795BAB9420FD1510861F3DF709860D6
:1049D00000281ADA0120FCF78AFA85F83840BDE889
:1049E000F0410020FCF783BA41450ED162F3DF703D
:1049F0009860002809DA0120FCF779FA85F8384038
:104A0000BDE8F0410020FCF772BABDE8F08170B556
:104A100046481B38007888282CD144481A38444925
:104A20000968C1F30F2400214FF6FF75027805EAEB
:104A300002234278801C1A43944216D10078384CE5
:104A4000C0F1FF00E07308B91020E073E07BFCF7D1
:104A500028FB0120FCF74BFA3649E07B81F829005E
:104A6000BDE870400020FCF742BA401C491C89B2E6
:104A70000429DBD370BD2DE9F0472F4D288840F67F
:104A8000FA71084028802C48183000882A491431CF
:104A9000098840EA01413C24B1FBF4F004FB10100A
:104AA000234E264B32681A40024332601D4FBA68CB
:104AB00042F00072BA60DFF868C0FF238CF8113052
:104AC00003285FD24FF46163B1FBF3FC03FB1C1CB2
:104AD000BCFBF4F404F0FF0C194CB1FBF4F804FB3C
:104AE0001811B1FBF3F1CCB2210441EA0C210143CE
:104AF0003160DFF840904FF0A008182C2BD3002A2B
:104B000027DA01201EE000000438014010080140AF
:104B1000FFFFCF003C300020100800401004004090
:104B200008000020780500202832002020FC000822
:104B30005C0500203C2800200428004000FFFF0006
:104B400080510100FCF7D3F989F838800020FCF788
:104B5000CEF903F0E8FBFFF7EDFEFFF758FF3188D1
:104B600004F0030089B208430CD1B868002807DAC2
:104B70000120FCF7BCF989F838800020FCF7B7F970
:104B800003F0D1FB28888006FCD5BDE8F0872DE92D
:104B9000F05F00254FF4C877E248016889040029D6
:104BA00073DA461406606420FCF79EF9DE48DFF8ED
:104BB0007C9303E0D9F80010890467D40146401EB5
:104BC0000629F7D8DA48D9F80010890403D4014639
:104BD000401E0529F7D84FF40051D64803F001FCD8
:104BE0004FF080084FF4617002F0DFFE4FF42F7039
:104BF00002F01EFFD048816821F400318160DFF8A7
:104C00003CB30D20ABF81A00CD48CBF82800DFF8F4
:104C100024A335B1032D1AD0012D30D0022D36D06A
:104C20003BE000260CE0BBF81A10224606FB01A070
:104C300003F0D0FB600040EAD410C4B2761CB6B2D8
:104C40004645F0D3600040EAD410C4B225E0002607
:104C50000DE0BBF81A10224606FB01A003F0BAFBD8
:104C6000600804F0010140EAC114761CB6B2464562
:104C7000EFD3600804F0010140EAC1140DE04FF4E5
:104C80000051AC4803F0ADFB07E027E030E0FF2225
:104C90004FF40051A74803F09DFB7F1E052F01D262
:104CA00003F041FBA748FCF71FF9D9F80000800486
:104CB000AFD44FF47A70FCF717F9D9F800008004EC
:104CC000A7D4D9F800008004FBD54FF4C8776D1C39
:104CD000EDB2042D9DD303F026FB9AE70168490449
:104CE00006D54FF480410160BDE8F05F03F01BBBC7
:104CF000BDE8F09F2DE9F0470024904BDFF848C253
:104D0000DFF830825E8B0023651C0CE0C71805FBC2
:104D100006890CEB071702EB030AD1443F5D09F843
:104D20000D7C5B1CDBB28B42F0D3ECB2102CEAD3CF
:104D30002BE730B5854D00212970012169700221D2
:104D4000A9701121E9700D2129710C2169710422CA
:104D5000AA710B22EA7112222A7269720E21A972BB
:104D6000002809D00024A01CC2B2285D0121FFF751
:104D7000C1FF641C0B2CF6DB754D0A240022287839
:104D80000121B0FBF4F0FFF7B5FF28780122B0FB5A
:104D9000F4F104FB1100BDE830401146AAE7A0B0D1
:104DA0000024654E654D6878A04202D00446FCF7A9
:104DB0006DF96878052835D0012837D002283CD015
:104DC000042841D080226349684603F0F1FA0021AB
:104DD000DFF860A1B5F81A80E94600204A1C02FB02
:104DE00008AC430809EB4317034661F35F03FF5C1C
:104DF000A0F108030CF8037000F1010080B208284C
:104E0000EFD391B21029E8D303F088FAB068C0F369
:104E1000C3400128C7D00428C5D00528C3D0A86A3C
:104E20008047C0E70120FFF784FFEDE74949802272
:104E30008031684603F0BCFAC9E7464980228039D0
:104E4000684603F0B5FAC2E780224349684603F09A
:104E5000AFFABCE770B52A2003F031FA742003F0F2
:104E60002EFA692003F02BFA6D2003F028FA652052
:104E700003F025FA3A2003F022FA00242E4D103DCB
:104E8000285D03F01CFA641CE4B20E2CF8D3BDE8D4
:104E90007040042003F013BA2DE9F0412F48056853
:104EA000264E02273763002002F0CEFA882837D139
:104EB000ADB3681C34D0306B2844401E02F0C4FAF5
:104EC0000446691E306B02F054FBDFF86C808442AC
:104ED000A8F110080DD10024306B28442044083874
:104EE00002F0B2FA08F80400641CE4B2072CF3D311
:104EF00001E0012030703846376302F0A5FA9D28A2
:104F00000AD048B1032030700020002108F80010BA
:104F1000401CC0B20728F9D3BDE8F0419AE7FFE78B
:104F2000377072E514040140A086010008080140B2
:104F300080969800140800207805002008000020C2
:104F40005750000820A10700BC8A00084532002005
:104F50005C050020E6870008E688000878FC000869
:104F600000E0401E0028FCD170471E205F498022CF
:104F70000A600100A0F10100C0B2FAD15B48001D37
:104F8000026070471E205A494FF480720A60010087
:104F9000A0F10100C0B2FAD15548001D026070476F
:104FA0001E20534901220A600100A0F10100C0B295
:104FB000FAD14F48001D026070471E204C49022262
:104FC0000A600100A0F10100C0B2FAD14848001DFA
:104FD0000260704730B5454B02061C1D4FF400417E
:104FE000002A01DA196000E02160802222601A6044
:104FF000450601D5196000E0216022601A6085062F
:1050000001D5196000E0216022601A60C50601D553
:10501000196000E0216022601A60050701D519605F
:1050200000E0216022601A60450701D5196000E0A8
:10503000216022601A60850701D5196000E02160B7
:1050400022601A602260C00701D0196000E0216070
:1050500022601A6030BD2DE9F0470D240027A4F12D
:10506000010A0AF0FF060025DFF88880DFF8889043
:1050700015E0A01B401EC7F11F0101FB040080B218
:1050800018F80000D9F80810490300D4C043C04301
:10509000C0B2FFF79FFF6D1CEDB2761EF6B2A542BF
:1050A000E7D3FFF76FFFFFF77BFF7F1CFFB2202FD7
:1050B000D7D3BDE8F04780E72DE9F04107460D263C
:1050C0000025002404E03846FFF784FF641CE4B2A6
:1050D000B442F8D3FFF756FFFFF762FF6D1CEDB245
:1050E000202DEED3BDE8F04167E70000100C014031
:1050F00010080140140800207805002010B5002297
:105100000024C0F34100022802D0012820D03EE054
:1051100008293CD2DFE801F004070A0D1013161924
:105120000F22F02433E08722E12430E0C322C3249D
:105130002DE0E12287242AE0F0220F2427E07822C4
:105140001E2424E03C223C2421E01E2278241EE080
:1051500008291CD2DFE801F004070A0D1013161904
:105160000F22F02413E01E22782410E03C223C247D
:105170000DE078221E240AE0F0220F2407E0E1224D
:10518000872404E0C322C32401E08722E12444EA07
:10519000022010BD2DE9F34F88B04FF00008FE4902
:1051A0000C88017DCDB2017BCFB2017CCEB20089EB
:1051B0001FFA80F9099810F0060F29D0DFF8DCA358
:1051C00009989AF80010FFF799FF010AC2B29AF8FD
:1051D0000100401CC0B28AF80100F14B1B789842D4
:1051E00009D300208AF801009AF80000401C00F062
:1051F00007008AF800004FF0800C7F2001904FF0EC
:10520000010AFE200090E7488079E0B11EB10CE071
:105210000F21F022EFE7E3484FF0800C007A2CFAE0
:1052200000FC6FEA0C00C0B2019006EB0900A0423E
:1052300009D1DC48037A0120984000F0FF0A6FEAA8
:105240000A00C0B20090D848007A0790012850D1D7
:10525000099880064DD528463B18029346E0D34B6B
:105260001B7800EB030ECDF818E0D14B0EFB04FECB
:1052700003EB060BCDF814E0CDF810E01EF80B3070
:10528000DDF804E003EA0E03DDF810E00EF80B3061
:105290004FF0800E2EFA08FECDF80CE01EEA020F49
:1052A00005D0DDF814E043EA0C030EF80B30C04BD8
:1052B000DDF818B0DDF800E00BFB043306EB090B5A
:1052C0005B4413F801BC0BEA0E0B03F801BCDDF8DC
:1052D0000CE01EEA010F03D04BEA0A0B03F801BCF5
:1052E000401CC0B208F1010808F00708029B834285
:1052F000B5D80998C306AE48A0F1010052D5B4460E
:10530000DFF8ACA206EB090311E005FB04FB0AEB96
:105310000C080BF8081005EB070BABF1010B0BFBAE
:1053200004FB0BF808200CF1010C1FFA8CFC634500
:10533000EBD8DFF870C29CF80880B8F1000F31D0CC
:10534000BEB94FF0FF0C2CFA08FC05FB04FB1AF861
:105350000BE00EEA0C0E0AF80BE005EB070BABF1C5
:10536000010B0BFB04FB1AF80BE00EEA0C0E0AF81B
:105370000BE0A34216D1FF2303FA08F305F1010C59
:105380000CFB04FC1CF8008008EA03080CF8008001
:1053900005EB070C0CFB04FC1CF8008008EA030872
:1053A0000CF80080079B012B4AD1099B9B0647D52F
:1053B0003346DFF8F8C1DFF8F8A1B1449CF800C02B
:1053C00012E005EB0C0B0BFB04FB0AEB03080BF8DC
:1053D00008100CEB050BBB44ABF1010B0BFB04FB02
:1053E0000BF808205B1C9BB29945EAD86D490A7AF4
:1053F000002A25D09EB9FF21D14005EB0C031E46A3
:1054000063431AF8038008EA01080AF80380F319D5
:105410005B1E63431AF803600E400AF80360A1455F
:105420000ED1FF21914005EB0C021346521C624342
:10543000155C0D401554DA196243135C0B4013548C
:105440000AB0BDE8F08F2DE9FE4F58480078524968
:105450000C88604385B2DFF84CC1FF219CF808003E
:1054600021FA00F7814001F0FF084F498A6822F4D1
:1054700080328A608979091ACEB2DCF80020019264
:105480009CF80710331AB3EBC10F03DBCB064FEACE
:10549000136901E003F0FF0901FB00F3580000EB82
:1054A0000110DFF800A11044009002EB430001F06E
:1054B000CBFF9AF808A0DFF8F8B011E0FCF786F807
:1054C0003C4901F80A000AFB04F189B21BF80120EB
:1054D0003A4002430BF801200AF1010A1FFA8AFA46
:1054E0003048007A48445045E8D82F48007A0128CF
:1054F00026D1DFF8B0A09AF807009AF808104843C0
:10550000009901EB400001F09FFF9AF808A012E01B
:10551000FCF75CF82749463101F80A000AFB045100
:1055200089B21BF801203A4002430BF801200AF12E
:10553000010A1FFA8AFA1B48007A48445045E7D806
:10554000DFF860A0019A9AF807009AF80810414322
:1055500002EB410101EBC00001F076FF9AF808A0D0
:1055600013E0FCF733F80F498C3901F80A000AF10F
:10557000010A0AFB04F1491E89B20D4B5A5C02EA8A
:10558000080202435A541FFA8AFA0648007A48442D
:105590005045E6D804480FE02200002019050020FD
:1055A000160000202832002078050020140000207A
:1055B0001408002010310020007A01282CD1DFF8D7
:1055C0001CA4009A9AF807009AF80810414302EBCD
:1055D000410101EBC00001F037FF9AF808A0DFF8A5
:1055E00000B414E0FBF7F2FFFC49463901F80A0069
:1055F000691E0AF1010A0AFB041189B21BF8012095
:1056000002EA080202430BF801201FFA8AFAF34863
:10561000007A48445045E5D8F048017A90F807A050
:1056200001EBCA00029065E04FEACA60020E5DE03D
:10563000501840285CD200FB04F39BB2DFF8A0C3F3
:105640001CF803B00BEA070BDFF898E31EF8019093
:105650004BEA090B0CF803B00EF8009000F10109B9
:1056600009FB04F35B1E9BB21CF803E00EEA080E74
:10567000DFF868B3ABF18C0B1BF801B04EEA0B0EF0
:105680000CF803E0D54B8C3B03F800B0D64B1B7AEB
:10569000012B28D100FB04539BB21CF803B00BEA8A
:1056A000070BDFF840E30EF1460E1EF801E04BEA6F
:1056B0000E0B0CF803B0CB4B463303F800E06B1E27
:1056C00009FB04339BB21CF803B00BEA080BDFF8AC
:1056D0000CE3AEF1460E1EF801904BEA090B0CF8F4
:1056E00003B00EF8009002EBCA00C2B2B2429FD3E0
:1056F000491C89B20298DFF8E4B2884294D8019834
:1057000001F0A2FE4FF00009B54FD84615E04FF06A
:10571000000A0AE0FBF75AFF09FB04F107EB0A0253
:1057200088540AF1010A1FFA8AFA98F807005045CE
:10573000F0D809F1010909F0FF0998F80800484577
:10574000E5D8A948007A01281FD1009801F07CFE15
:105750004FF0000A15E04FF000090AE0FBF736FFB2
:105760000AFB047105EB0902885409F101091FFACB
:1057700089F998F807004845F0D80AF1010A0AF0BB
:10578000FF0A98F808005045E5D898F8071098F8EF
:105790000820019801FB020001F056FE06FB04F010
:1057A0001FFA80FA4FF0000915E04FF0000B0AE0F5
:1057B000FBF70CFF09FB04710AEB0B0288540BF199
:1057C000010B1FFA8BFB98F807005845F0D809F138
:1057D000010909F0FF0998F808004845E5D8824812
:1057E000007A012829D198F8071098F80820009825
:1057F00001FB020001F028FE06FB04501FFA80FBAB
:105800004FF0000A15E04FF000090AE0FBF7DEFE5A
:105810000AFB04710BEB0902885409F101091FFA14
:1058200089F998F807004845F0D80AF1010A0AF00A
:10583000FF0A98F808005045E5D898F80700B4FB2F
:10584000F0F94FF0000C98F808B022E001211AE0BE
:10585000002214E00CFB04F8BB1818F803A001FBAD
:10586000008808F803A00CEB060808FB04F818F8F9
:1058700003A001FB008808F803A0521CD2B290429A
:10588000E8D8491C89B24945E2D30CF1010C0CF06F
:10589000FF0CE345DAD85449097A01292BD10021BC
:1058A00027E0012221E000231BE001FB047805EB47
:1058B000030C18F80CA001FB04F802FB0088E0447C
:1058C00007F808A001EB060808FB047A08FB04F8B7
:1058D00002FB00881AF80CA0C44407F80CA05B1C5B
:1058E000DBB29842E1D8521C92B24A45DBD3491C44
:1058F000C9B28B45D5D8BDE8FE8F2DE9F04F91B0E8
:10590000364A167B39490F7839490988137AFF24BA
:1059100024FA03F20492049AD243D2B203929C4036
:10592000E2B20292029AD243D2B201922E4A927904
:10593000D21AD4B22C4ADFF8A8800028127A10922A
:10594000A8F101027ED04FF0000B2FE0002527E0E8
:10595000681C0F904843805C0090481E80B205FB95
:1059600001FC11E008EB000A1CF80A904FEA590903
:1059700005FB018E401E1EF800E04FEACE1E49EAEC
:105980000E090CF80A9080B20028EBD10098C001F3
:1059900018F80C5040EA550008F80C000F98C5B2F2
:1059A000AB42D5D80BF1010B0BF0FF0BB345CDD3B8
:1059B0001098012849D10020059041E04FF0000CDB
:1059C00038E00CEB070909F101004843805C0090C6
:1059D000481E80B209FB01F51EE0000028320020BD
:1059E0001408002010310020780500201400002049
:1059F0002200002008EB000B15F80BA04FEA5A0A12
:105A000009FB018E401E1EF800E04FEACE1E4AEA56
:105A10000E0A05F80BA080B20028EBD10098C00157
:105A200018F8059040EA590008F805000CF1010C3F
:105A30000CF0FF0C6345C4D80598401CC0B205901B
:105A4000059800E088E0B042B8D34FF0000B39E091
:105A5000254618190D902EE005FB01FC18F80C00E6
:105A600000900020A1F10109CDF8389013E008EB77
:105A7000000A1CF80A904FEA490905FB018E401CF8
:105A80001EF800E00EF0800E4FEADE1E49EA0E0915
:105A90000CF80A9080B2DDF838904845E7DB0098B2
:105AA000C0096D1CAC464D4315F8029040EA490010
:105AB000A8540CF0FF050D98A842CDD80BF1010BAE
:105AC0000BF0FF0BB345C3D31098012843D100203E
:105AD00005903DE0254618190B9032E005EB0709CB
